{"project/contracts/PulseScore.sol":{"PulseScore":{"abi":[{"inputs":[],"stateMutability":"nonpayable","type":"constructor"},{"anonymous":false,"inputs":[{"indexed":true,"internalType":"address","name":"agent","type":"address"},{"indexed":true,"internalType":"address","name":"owner","type":"address"},{"indexed":false,"internalType":"uint256","name":"timestamp","type":"uint256"}],"name":"AgentRegistered","type":"event"},{"anonymous":false,"inputs":[{"indexed":true,"internalType":"address","name":"agent","type":"address"},{"indexed":false,"internalType":"uint256","name":"oldScore","type":"uint256"},{"indexed":false,"internalType":"uint256","name":"newScore","type":"uint256"}],"name":"ScoreUpdated","type":"event"},{"anonymous":false,"inputs":[{"indexed":true,"internalType":"address","name":"agent","type":"address"},{"indexed":true,"internalType":"address","name":"service","type":"address"},{"indexed":false,"internalType":"uint256","name":"amount","type":"uint256"},{"indexed":false,"internalType":"bool","name":"success","type":"bool"},{"indexed":false,"internalType":"int256","name":"scoreChange","type":"int256"},{"indexed":false,"internalType":"uint256","name":"newScore","type":"uint256"}],"name":"TransactionRecorded","type":"event"},{"anonymous":false,"inputs":[{"indexed":true,"internalType":"address","name":"verifier","type":"address"}],"name":"VerifierAdded","type":"event"},{"anonymous":false,"inputs":[{"indexed":true,"internalType":"address","name":"verifier","type":"address"}],"name":"VerifierRemoved","type":"event"},{"inputs":[],"name":"DECAY_RATE","outputs":[{"internalType":"uint256","name":"","type":"uint256"}],"stateMutability":"view","type":"function"},{"inputs":[],"name":"FAILURE_PENALTY","outputs":[{"internalType":"uint256","name":"","type":"uint256"}],"stateMutability":"view","type":"function"},{"inputs":[],"name":"MAX_SCORE","outputs":[{"internalType":"uint256","name":"","type":"uint256"}],"stateMutability":"view","type":"function"},{"inputs":[],"name":"MIN_SCORE","outputs":[{"internalType":"uint256","name":"","type":"uint256"}],"stateMutability":"view","type":"function"},{"inputs":[],"name":"MIN_TXN_INTERVAL","outputs":[{"internalType":"uint256","name":"","type":"uint256"}],"stateMutability":"view","type":"function"},{"inputs":[],"name":"SUCCESS_BONUS","outputs":[{"internalType":"uint256","name":"","type":"uint256"}],"stateMutability":"view","type":"function"},{"inputs":[{"internalType":"address","name":"_verifier","type":"address"}],"name":"addVerifier","outputs":[],"stateMutability":"nonpayable","type":"function"},{"inputs":[{"internalType":"uint256","name":"","type":"uint256"}],"name":"agentList","outputs":[{"internalType":"address","name":"","type":"address"}],"stateMutability":"view","type":"function"},{"inputs":[{"internalType":"address","name":"","type":"address"},{"internalType":"uint256","name":"","type":"uint256"}],"name":"agentTransactions","outputs":[{"internalType":"address","name":"agent","type":"address"},{"internalType":"address","name":"service","type":"address"},{"internalType":"uint256","name":"amount","type":"uint256"},{"internalType":"bool","name":"success","type":"bool"},{"internalType":"uint256","name":"timestamp","type":"uint256"},{"internalType":"int256","name":"scoreChange","type":"int256"}],"stateMutability":"view","type":"function"},{"inputs":[{"internalType":"address","name":"","type":"address"}],"name":"agents","outputs":[{"internalType":"address","name":"owner","type":"address"},{"internalType":"uint256","name":"score","type":"uint256"},{"internalType":"uint256","name":"totalTxns","type":"uint256"},{"internalType":"uint256","name":"successTxns","type":"uint256"},{"internalType":"uint256","name":"totalSpent","type":"uint256"},{"internalType":"uint256","name":"registeredAt","type":"uint256"},{"internalType":"uint256","name":"lastUpdated","type":"uint256"},{"internalType":"bool","name":"exists","type":"bool"}],"stateMutability":"view","type":"function"},{"inputs":[{"internalType":"address","name":"_agent","type":"address"}],"name":"getAgent","outputs":[{"components":[{"internalType":"address","name":"owner","type":"address"},{"internalType":"uint256","name":"score","type":"uint256"},{"internalType":"uint256","name":"totalTxns","type":"uint256"},{"internalType":"uint256","name":"successTxns","type":"uint256"},{"internalType":"uint256","name":"totalSpent","type":"uint256"},{"internalType":"uint256","name":"registeredAt","type":"uint256"},{"internalType":"uint256","name":"lastUpdated","type":"uint256"},{"internalType":"bool","name":"exists","type":"bool"}],"internalType":"struct PulseScore.Agent","name":"","type":"tuple"}],"stateMutability":"view","type":"function"},{"inputs":[],"name":"getAgentCount","outputs":[{"internalType":"uint256","name":"","type":"uint256"}],"stateMutability":"view","type":"function"},{"inputs":[{"internalType":"address","name":"_agent","type":"address"},{"internalType":"uint256","name":"_count","type":"uint256"}],"name":"getRecentTransactions","outputs":[{"components":[{"internalType":"address","name":"agent","type":"address"},{"internalType":"address","name":"service","type":"address"},{"internalType":"uint256","name":"amount","type":"uint256"},{"internalType":"bool","name":"success","type":"bool"},{"internalType":"uint256","name":"timestamp","type":"uint256"},{"internalType":"int256","name":"scoreChange","type":"int256"}],"internalType":"struct PulseScore.Transaction[]","name":"","type":"tuple[]"}],"stateMutability":"view","type":"function"},{"inputs":[{"internalType":"address","name":"_agent","type":"address"}],"name":"getScore","outputs":[{"internalType":"uint256","name":"","type":"uint256"}],"stateMutability":"view","type":"function"},{"inputs":[{"internalType":"address","name":"_agent","type":"address"}],"name":"getSuccessRate","outputs":[{"internalType":"uint256","name":"","type":"uint256"}],"stateMutability":"view","type":"function"},{"inputs":[{"internalType":"address","name":"_agent","type":"address"}],"name":"getTransactionCount","outputs":[{"internalType":"uint256","name":"","type":"uint256"}],"stateMutability":"view","type":"function"},{"inputs":[{"internalType":"address","name":"_agent","type":"address"},{"internalType":"uint256","name":"_minScore","type":"uint256"}],"name":"meetsThreshold","outputs":[{"internalType":"bool","name":"","type":"bool"}],"stateMutability":"view","type":"function"},{"inputs":[],"name":"owner","outputs":[{"internalType":"address","name":"","type":"address"}],"stateMutability":"view","type":"function"},{"inputs":[{"internalType":"address","name":"_agent","type":"address"},{"internalType":"address","name":"_service","type":"address"},{"internalType":"uint256","name":"_amount","type":"uint256"},{"internalType":"bool","name":"_success","type":"bool"}],"name":"recordTransaction","outputs":[],"stateMutability":"nonpayable","type":"function"},{"inputs":[{"internalType":"address","name":"_agentAddress","type":"address"}],"name":"registerAgent","outputs":[],"stateMutability":"nonpayable","type":"function"},{"inputs":[{"internalType":"address","name":"_verifier","type":"address"}],"name":"removeVerifier","outputs":[],"stateMutability":"nonpayable","type":"function"},{"inputs":[{"internalType":"address","name":"","type":"address"}],"name":"verifiers","outputs":[{"internalType":"bool","name":"","type":"bool"}],"stateMutability":"view","type":"function"}],"evm":{"bytecode":{"linkReferences":{},"object":"608060405234801561000f575f80fd5b50600380546001600160a01b031916331790556112138061002f5f395ff3fe608060405234801561000f575f80fd5b506004361061013d575f3560e01c80638a7b6678116100b4578063ca2dfd0a11610079578063ca2dfd0a146102d7578063cb510373146102ea578063cff5820b146102fd578063d47875d014610305578063fb3551ff14610330578063fd66091e146103aa575f80fd5b80638a7b6678146102495780638da5cb5b1461025c5780639000b3d61461026f57806391cab63e14610282578063aa92e4491461028a575f80fd5b80632f80c54f116101055780632f80c54f146101b5578063306b9bb9146101e057806340b89270146101f55780636c824487146101fc5780637d0cc5801461022e5780637eb312b114610241575f80fd5b80631de40e491461014157806323ca0cd21461015c57806327ff622314610184578063280aa35f1461018d5780632e4eca2b14610195575b5f80fd5b610149600181565b6040519081526020015b60405180910390f35b61014961016a366004610fbf565b6001600160a01b03165f9081526001602052604090205490565b6101496103e881565b610149603c81565b6101a86101a3366004610fd8565b61044e565b6040516101539190611000565b6101c86101c3366004611085565b6105cb565b6040516001600160a01b039091168152602001610153565b6101f36101ee366004610fbf565b6105f3565b005b6101495f81565b61021e61020a366004610fbf565b60046020525f908152604090205460ff1681565b6040519015158152602001610153565b61021e61023c366004610fd8565b610784565b610149600581565b6101f361025736600461109c565b6107cf565b6003546101c8906001600160a01b031681565b6101f361027d366004610fbf565b610c32565b600254610149565b61029d610298366004610fd8565b610ccf565b604080516001600160a01b0397881681529690951660208701529385019290925215156060840152608083015260a082015260c001610153565b6101f36102e5366004610fbf565b610d30565b6101496102f8366004610fbf565b610dca565b610149600f81565b610149610313366004610fbf565b6001600160a01b03165f9081526020819052604090206001015490565b61034361033e366004610fbf565b610e73565b604051610153919081516001600160a01b031681526020808301519082015260408083015190820152606080830151908201526080808301519082015260a0828101519082015260c0808301519082015260e0918201511515918101919091526101000190565b6104076103b8366004610fbf565b5f60208190529081526040902080546001820154600283015460038401546004850154600586015460068701546007909701546001600160a01b03909616969495939492939192909160ff1688565b604080516001600160a01b0390991689526020890197909752958701949094526060860192909252608085015260a084015260c0830152151560e082015261010001610153565b6001600160a01b0382165f90815260016020526040812080546060928185116104775784610479565b815b90505f8167ffffffffffffffff811115610495576104956110ec565b6040519080825280602002602001820160405280156104f357816020015b6040805160c0810182525f8082526020808301829052928201819052606082018190526080820181905260a082015282525f199092019101816104b35790505b5090505f5b828110156105be57848161050d600187611114565b6105179190611114565b8154811061052757610527611127565b5f9182526020918290206040805160c081018252600690930290910180546001600160a01b03908116845260018201541693830193909352600283015490820152600382015460ff16151560608201526004820154608082015260059091015460a082015282518390839081106105a0576105a0611127565b602002602001018190525080806105b69061113b565b9150506104f8565b5093505050505b92915050565b600281815481106105da575f80fd5b5f918252602090912001546001600160a01b0316905081565b6001600160a01b0381165f9081526020819052604090206007015460ff16156106635760405162461bcd60e51b815260206004820152601e60248201527f50756c736553636f72653a20616c72656164792072656769737465726564000060448201526064015b60405180910390fd5b60408051610100810182523380825260c860208084019182525f84860181815260608601828152608087018381524260a0890181815260c08a01828152600160e08c018181526001600160a01b038f8116808b528a8c528f8b209e518f546001600160a01b031990811691909316178f559b518e84015597516002808f0191909155965160038e0155945160048d0155915160058c01555160068b015591516007909901805460ff1916991515999099179098558154908101825592527f405787fa12a823e0f2b7631cc41b3ba8828b3321ca811111fa75cd3aa3bb5ace9091018054909116831790559351928352909290917fae6249e1b0de18c2723755a5833e4712be14aaa5c1d2b8923223ad3784964f6e910160405180910390a350565b6001600160a01b0382165f9081526020819052604081206007015460ff1680156107c857506001600160a01b0383165f908152602081905260409020600101548211155b9392505050565b335f9081526004602052604090205460ff16806107f657506003546001600160a01b031633145b6108425760405162461bcd60e51b815260206004820152601860248201527f50756c736553636f72653a206e6f742076657269666965720000000000000000604482015260640161065a565b6001600160a01b0384165f90815260208190526040902060070154849060ff166108ae5760405162461bcd60e51b815260206004820181905260248201527f50756c736553636f72653a206167656e74206e6f742072656769737465726564604482015260640161065a565b6001600160a01b0385165f9081526020819052604090206006810154603c906108d79042611114565b10156109255760405162461bcd60e51b815260206004820152601860248201527f50756c736553636f72653a20746f6f206672657175656e740000000000000000604482015260640161065a565b5f831561096a575f620f4240861161094f57620186a08611610948576001610952565b6002610952565b60035b60ff169050610962816005611153565b915050610977565b610974600f611166565b90505b5f62093a8083600601544261098c9190611114565b6109969190611180565b905080156109c3575f6109aa60018361119f565b6109b390611166565b90506109bf81846111b6565b9250505b60018301545f6109d384836111b6565b90506103e88113156109e457506103e85b5f8112156109ef57505f5b60018501819055600285018054905f610a078361113b565b91905055508615610a2957600385018054905f610a238361113b565b91905055505b87856004015f828254610a3c9190611153565b9250508190555042856006018190555060015f8b6001600160a01b03166001600160a01b031681526020019081526020015f206040518060c001604052808c6001600160a01b031681526020018b6001600160a01b031681526020018a8152602001891515815260200142815260200186815250908060018154018082558091505060019003905f5260205f2090600602015f909190919091505f820151815f015f6101000a8154816001600160a01b0302191690836001600160a01b031602179055506020820151816001015f6101000a8154816001600160a01b0302191690836001600160a01b03160217905550604082015181600201556060820151816003015f6101000a81548160ff0219169083151502179055506080820151816004015560a082015181600501555050886001600160a01b03168a6001600160a01b03167f1324d0ae1f7fd59b86732d23d6d8cd52fc78fbafb8366b2593bdbd57f13c18548a8a888a60010154604051610bce949392919093845291151560208401526040830152606082015260800190565b60405180910390a3896001600160a01b03167f91878448ef87c3db4aeb83e60e7deb1240ecae3fd04975ec93547398514cb4ed838760010154604051610c1e929190918252602082015260400190565b60405180910390a250505050505050505050565b6003546001600160a01b03163314610c845760405162461bcd60e51b8152602060048201526015602482015274283ab639b2a9b1b7b9329d103737ba1037bbb732b960591b604482015260640161065a565b6001600160a01b0381165f81815260046020526040808220805460ff19166001179055517f6d05492139c5ea989514a5d2150c028041e5c087e2a39967f67dc7d2655adb819190a250565b6001602052815f5260405f208181548110610ce8575f80fd5b5f9182526020909120600690910201805460018201546002830154600384015460048501546005909501546001600160a01b0394851697509390921694509260ff9091169186565b6003546001600160a01b03163314610d825760405162461bcd60e51b8152602060048201526015602482015274283ab639b2a9b1b7b9329d103737ba1037bbb732b960591b604482015260640161065a565b6001600160a01b0381165f81815260046020526040808220805460ff19169055517f44a3cd4eb5cc5748f6169df057b1cb2ae4c383e87cd94663c430e095d4cba4249190a250565b6001600160a01b038082165f908152602081815260408083208151610100810183528154909516855260018101549285019290925260028201549084018190526003820154606085015260048201546080850152600582015460a0850152600682015460c085015260079091015460ff16151560e08401529091908203610e5357505f92915050565b60408101516060820151610e699061271061119f565b6107c89190611180565b610ebe6040518061010001604052805f6001600160a01b031681526020015f81526020015f81526020015f81526020015f81526020015f81526020015f81526020015f151581525090565b6001600160a01b0382165f9081526020819052604090206007015460ff16610f285760405162461bcd60e51b815260206004820152601a60248201527f50756c736553636f72653a206e6f742072656769737465726564000000000000604482015260640161065a565b506001600160a01b039081165f9081526020818152604091829020825161010081018452815490941684526001810154918401919091526002810154918301919091526003810154606083015260048101546080830152600581015460a0830152600681015460c08301526007015460ff16151560e082015290565b80356001600160a01b0381168114610fba575f80fd5b919050565b5f60208284031215610fcf575f80fd5b6107c882610fa4565b5f8060408385031215610fe9575f80fd5b610ff283610fa4565b946020939093013593505050565b602080825282518282018190525f919060409081850190868401855b8281101561107857815180516001600160a01b03908116865287820151168786015285810151868601526060808201511515908601526080808201519086015260a0908101519085015260c0909301929085019060010161101c565b5091979650505050505050565b5f60208284031215611095575f80fd5b5035919050565b5f805f80608085870312156110af575f80fd5b6110b885610fa4565b93506110c660208601610fa4565b925060408501359150606085013580151581146110e1575f80fd5b939692955090935050565b634e487b7160e01b5f52604160045260245ffd5b634e487b7160e01b5f52601160045260245ffd5b818103818111156105c5576105c5611100565b634e487b7160e01b5f52603260045260245ffd5b5f6001820161114c5761114c611100565b5060010190565b808201808211156105c5576105c5611100565b5f600160ff1b820161117a5761117a611100565b505f0390565b5f8261119a57634e487b7160e01b5f52601260045260245ffd5b500490565b80820281158282048414176105c5576105c5611100565b8082018281125f8312801582168215821617156111d5576111d5611100565b50509291505056fea26469706673582212205f6ce7182c9f42f52009358093e38e48d5391bcf11330d1297d36170ae61cea564736f6c63430008140033","opcodes":"PUSH1 0x80 PUSH1 0x40 MSTORE CALLVALUE DUP1 ISZERO PUSH2 0xF JUMPI PUSH0 DUP1 REVERT JUMPDEST POP PUSH1 0x3 DUP1 SLOAD PUSH1 0x1 PUSH1 0x1 PUSH1 0xA0 SHL SUB NOT AND CALLER OR SWAP1 SSTORE PUSH2 0x1213 DUP1 PUSH2 0x2F PUSH0 CODECOPY PUSH0 RETURN INVALID PUSH1 0x80 PUSH1 0x40 MSTORE CALLVALUE DUP1 ISZERO PUSH2 0xF JUMPI PUSH0 DUP1 REVERT JUMPDEST POP PUSH1 0x4 CALLDATASIZE LT PUSH2 0x13D JUMPI PUSH0 CALLDATALOAD PUSH1 0xE0 SHR DUP1 PUSH4 0x8A7B6678 GT PUSH2 0xB4 JUMPI DUP1 PUSH4 0xCA2DFD0A GT PUSH2 0x79 JUMPI DUP1 PUSH4 0xCA2DFD0A EQ PUSH2 0x2D7 JUMPI DUP1 PUSH4 0xCB510373 EQ PUSH2 0x2EA JUMPI DUP1 PUSH4 0xCFF5820B EQ PUSH2 0x2FD JUMPI DUP1 PUSH4 0xD47875D0 EQ PUSH2 0x305 JUMPI DUP1 PUSH4 0xFB3551FF EQ PUSH2 0x330 JUMPI DUP1 PUSH4 0xFD66091E EQ PUSH2 0x3AA JUMPI PUSH0 DUP1 REVERT JUMPDEST DUP1 PUSH4 0x8A7B6678 EQ PUSH2 0x249 JUMPI DUP1 PUSH4 0x8DA5CB5B EQ PUSH2 0x25C JUMPI DUP1 PUSH4 0x9000B3D6 EQ PUSH2 0x26F JUMPI DUP1 PUSH4 0x91CAB63E EQ PUSH2 0x282 JUMPI DUP1 PUSH4 0xAA92E449 EQ PUSH2 0x28A JUMPI PUSH0 DUP1 REVERT JUMPDEST DUP1 PUSH4 0x2F80C54F GT PUSH2 0x105 JUMPI DUP1 PUSH4 0x2F80C54F EQ PUSH2 0x1B5 JUMPI DUP1 PUSH4 0x306B9BB9 EQ PUSH2 0x1E0 JUMPI DUP1 PUSH4 0x40B89270 EQ PUSH2 0x1F5 JUMPI DUP1 PUSH4 0x6C824487 EQ PUSH2 0x1FC JUMPI DUP1 PUSH4 0x7D0CC580 EQ PUSH2 0x22E JUMPI DUP1 PUSH4 0x7EB312B1 EQ PUSH2 0x241 JUMPI PUSH0 DUP1 REVERT JUMPDEST DUP1 PUSH4 0x1DE40E49 EQ PUSH2 0x141 JUMPI DUP1 PUSH4 0x23CA0CD2 EQ PUSH2 0x15C JUMPI DUP1 PUSH4 0x27FF6223 EQ PUSH2 0x184 JUMPI DUP1 PUSH4 0x280AA35F EQ PUSH2 0x18D JUMPI DUP1 PUSH4 0x2E4ECA2B EQ PUSH2 0x195 JUMPI JUMPDEST PUSH0 DUP1 REVERT JUMPDEST PUSH2 0x149 PUSH1 0x1 DUP2 JUMP JUMPDEST PUSH1 0x40 MLOAD SWAP1 DUP2 MSTORE PUSH1 0x20 ADD JUMPDEST PUSH1 0x40 MLOAD DUP1 SWAP2 SUB SWAP1 RETURN JUMPDEST PUSH2 0x149 PUSH2 0x16A CALLDATASIZE PUSH1 0x4 PUSH2 0xFBF JUMP JUMPDEST PUSH1 0x1 PUSH1 0x1 PUSH1 0xA0 SHL SUB AND PUSH0 SWAP1 DUP2 MSTORE PUSH1 0x1 PUSH1 0x20 MSTORE PUSH1 0x40 SWAP1 KECCAK256 SLOAD SWAP1 JUMP JUMPDEST PUSH2 0x149 PUSH2 0x3E8 DUP2 JUMP JUMPDEST PUSH2 0x149 PUSH1 0x3C DUP2 JUMP JUMPDEST PUSH2 0x1A8 PUSH2 0x1A3 CALLDATASIZE PUSH1 0x4 PUSH2 0xFD8 JUMP JUMPDEST PUSH2 0x44E JUMP JUMPDEST PUSH1 0x40 MLOAD PUSH2 0x153 SWAP2 SWAP1 PUSH2 0x1000 JUMP JUMPDEST PUSH2 0x1C8 PUSH2 0x1C3 CALLDATASIZE PUSH1 0x4 PUSH2 0x1085 JUMP JUMPDEST PUSH2 0x5CB JUMP JUMPDEST PUSH1 0x40 MLOAD PUSH1 0x1 PUSH1 0x1 PUSH1 0xA0 SHL SUB SWAP1 SWAP2 AND DUP2 MSTORE PUSH1 0x20 ADD PUSH2 0x153 JUMP JUMPDEST PUSH2 0x1F3 PUSH2 0x1EE CALLDATASIZE PUSH1 0x4 PUSH2 0xFBF JUMP JUMPDEST PUSH2 0x5F3 JUMP JUMPDEST STOP JUMPDEST PUSH2 0x149 PUSH0 DUP2 JUMP JUMPDEST PUSH2 0x21E PUSH2 0x20A CALLDATASIZE PUSH1 0x4 PUSH2 0xFBF JUMP JUMPDEST PUSH1 0x4 PUSH1 0x20 MSTORE PUSH0 SWAP1 DUP2 MSTORE PUSH1 0x40 SWAP1 KECCAK256 SLOAD PUSH1 0xFF AND DUP2 JUMP JUMPDEST PUSH1 0x40 MLOAD SWAP1 ISZERO ISZERO DUP2 MSTORE PUSH1 0x20 ADD PUSH2 0x153 JUMP JUMPDEST PUSH2 0x21E PUSH2 0x23C CALLDATASIZE PUSH1 0x4 PUSH2 0xFD8 JUMP JUMPDEST PUSH2 0x784 JUMP JUMPDEST PUSH2 0x149 PUSH1 0x5 DUP2 JUMP JUMPDEST PUSH2 0x1F3 PUSH2 0x257 CALLDATASIZE PUSH1 0x4 PUSH2 0x109C JUMP JUMPDEST PUSH2 0x7CF JUMP JUMPDEST PUSH1 0x3 SLOAD PUSH2 0x1C8 SWAP1 PUSH1 0x1 PUSH1 0x1 PUSH1 0xA0 SHL SUB AND DUP2 JUMP JUMPDEST PUSH2 0x1F3 PUSH2 0x27D CALLDATASIZE PUSH1 0x4 PUSH2 0xFBF JUMP JUMPDEST PUSH2 0xC32 JUMP JUMPDEST PUSH1 0x2 SLOAD PUSH2 0x149 JUMP JUMPDEST PUSH2 0x29D PUSH2 0x298 CALLDATASIZE PUSH1 0x4 PUSH2 0xFD8 JUMP JUMPDEST PUSH2 0xCCF JUMP JUMPDEST PUSH1 0x40 DUP1 MLOAD PUSH1 0x1 PUSH1 0x1 PUSH1 0xA0 SHL SUB SWAP8 DUP9 AND DUP2 MSTORE SWAP7 SWAP1 SWAP6 AND PUSH1 0x20 DUP8 ADD MSTORE SWAP4 DUP6 ADD SWAP3 SWAP1 SWAP3 MSTORE ISZERO ISZERO PUSH1 0x60 DUP5 ADD MSTORE PUSH1 0x80 DUP4 ADD MSTORE PUSH1 0xA0 DUP3 ADD MSTORE PUSH1 0xC0 ADD PUSH2 0x153 JUMP JUMPDEST PUSH2 0x1F3 PUSH2 0x2E5 CALLDATASIZE PUSH1 0x4 PUSH2 0xFBF JUMP JUMPDEST PUSH2 0xD30 JUMP JUMPDEST PUSH2 0x149 PUSH2 0x2F8 CALLDATASIZE PUSH1 0x4 PUSH2 0xFBF JUMP JUMPDEST PUSH2 0xDCA JUMP JUMPDEST PUSH2 0x149 PUSH1 0xF DUP2 JUMP JUMPDEST PUSH2 0x149 PUSH2 0x313 CALLDATASIZE PUSH1 0x4 PUSH2 0xFBF JUMP JUMPDEST PUSH1 0x1 PUSH1 0x1 PUSH1 0xA0 SHL SUB AND PUSH0 SWAP1 DUP2 MSTORE PUSH1 0x20 DUP2 SWAP1 MSTORE PUSH1 0x40 SWAP1 KECCAK256 PUSH1 0x1 ADD SLOAD SWAP1 JUMP JUMPDEST PUSH2 0x343 PUSH2 0x33E CALLDATASIZE PUSH1 0x4 PUSH2 0xFBF JUMP JUMPDEST PUSH2 0xE73 JUMP JUMPDEST PUSH1 0x40 MLOAD PUSH2 0x153 SWAP2 SWAP1 DUP2 MLOAD PUSH1 0x1 PUSH1 0x1 PUSH1 0xA0 SHL SUB AND DUP2 MSTORE PUSH1 0x20 DUP1 DUP4 ADD MLOAD SWAP1 DUP3 ADD MSTORE PUSH1 0x40 DUP1 DUP4 ADD MLOAD SWAP1 DUP3 ADD MSTORE PUSH1 0x60 DUP1 DUP4 ADD MLOAD SWAP1 DUP3 ADD MSTORE PUSH1 0x80 DUP1 DUP4 ADD MLOAD SWAP1 DUP3 ADD MSTORE PUSH1 0xA0 DUP3 DUP2 ADD MLOAD SWAP1 DUP3 ADD MSTORE PUSH1 0xC0 DUP1 DUP4 ADD MLOAD SWAP1 DUP3 ADD MSTORE PUSH1 0xE0 SWAP2 DUP3 ADD MLOAD ISZERO ISZERO SWAP2 DUP2 ADD SWAP2 SWAP1 SWAP2 MSTORE PUSH2 0x100 ADD SWAP1 JUMP JUMPDEST PUSH2 0x407 PUSH2 0x3B8 CALLDATASIZE PUSH1 0x4 PUSH2 0xFBF JUMP JUMPDEST PUSH0 PUSH1 0x20 DUP2 SWAP1 MSTORE SWAP1 DUP2 MSTORE PUSH1 0x40 SWAP1 KECCAK256 DUP1 SLOAD PUSH1 0x1 DUP3 ADD SLOAD PUSH1 0x2 DUP4 ADD SLOAD PUSH1 0x3 DUP5 ADD SLOAD PUSH1 0x4 DUP6 ADD SLOAD PUSH1 0x5 DUP7 ADD SLOAD PUSH1 0x6 DUP8 ADD SLOAD PUSH1 0x7 SWAP1 SWAP8 ADD SLOAD PUSH1 0x1 PUSH1 0x1 PUSH1 0xA0 SHL SUB SWAP1 SWAP7 AND SWAP7 SWAP5 SWAP6 SWAP4 SWAP5 SWAP3 SWAP4 SWAP2 SWAP3 SWAP1 SWAP2 PUSH1 0xFF AND DUP9 JUMP JUMPDEST PUSH1 0x40 DUP1 MLOAD PUSH1 0x1 PUSH1 0x1 PUSH1 0xA0 SHL SUB SWAP1 SWAP10 AND DUP10 MSTORE PUSH1 0x20 DUP10 ADD SWAP8 SWAP1 SWAP8 MSTORE SWAP6 DUP8 ADD SWAP5 SWAP1 SWAP5 MSTORE PUSH1 0x60 DUP7 ADD SWAP3 SWAP1 SWAP3 MSTORE PUSH1 0x80 DUP6 ADD MSTORE PUSH1 0xA0 DUP5 ADD MSTORE PUSH1 0xC0 DUP4 ADD MSTORE ISZERO ISZERO PUSH1 0xE0 DUP3 ADD MSTORE PUSH2 0x100 ADD PUSH2 0x153 JUMP JUMPDEST PUSH1 0x1 PUSH1 0x1 PUSH1 0xA0 SHL SUB DUP3 AND PUSH0 SWAP1 DUP2 MSTORE PUSH1 0x1 PUSH1 0x20 MSTORE PUSH1 0x40 DUP2 KECCAK256 DUP1 SLOAD PUSH1 0x60 SWAP3 DUP2 DUP6 GT PUSH2 0x477 JUMPI DUP5 PUSH2 0x479 JUMP JUMPDEST DUP2 JUMPDEST SWAP1 POP PUSH0 DUP2 PUSH8 0xFFFFFFFFFFFFFFFF DUP2 GT ISZERO PUSH2 0x495 JUMPI PUSH2 0x495 PUSH2 0x10EC JUMP JUMPDEST PUSH1 0x40 MLOAD SWAP1 DUP1 DUP3 MSTORE DUP1 PUSH1 0x20 MUL PUSH1 0x20 ADD DUP3 ADD PUSH1 0x40 MSTORE DUP1 ISZERO PUSH2 0x4F3 JUMPI DUP2 PUSH1 0x20 ADD JUMPDEST PUSH1 0x40 DUP1 MLOAD PUSH1 0xC0 DUP2 ADD DUP3 MSTORE PUSH0 DUP1 DUP3 MSTORE PUSH1 0x20 DUP1 DUP4 ADD DUP3 SWAP1 MSTORE SWAP3 DUP3 ADD DUP2 SWAP1 MSTORE PUSH1 0x60 DUP3 ADD DUP2 SWAP1 MSTORE PUSH1 0x80 DUP3 ADD DUP2 SWAP1 MSTORE PUSH1 0xA0 DUP3 ADD MSTORE DUP3 MSTORE PUSH0 NOT SWAP1 SWAP3 ADD SWAP2 ADD DUP2 PUSH2 0x4B3 JUMPI SWAP1 POP JUMPDEST POP SWAP1 POP PUSH0 JUMPDEST DUP3 DUP2 LT ISZERO PUSH2 0x5BE JUMPI DUP5 DUP2 PUSH2 0x50D PUSH1 0x1 DUP8 PUSH2 0x1114 JUMP JUMPDEST PUSH2 0x517 SWAP2 SWAP1 PUSH2 0x1114 JUMP JUMPDEST DUP2 SLOAD DUP2 LT PUSH2 0x527 JUMPI PUSH2 0x527 PUSH2 0x1127 JUMP JUMPDEST PUSH0 SWAP2 DUP3 MSTORE PUSH1 0x20 SWAP2 DUP3 SWAP1 KECCAK256 PUSH1 0x40 DUP1 MLOAD PUSH1 0xC0 DUP2 ADD DUP3 MSTORE PUSH1 0x6 SWAP1 SWAP4 MUL SWAP1 SWAP2 ADD DUP1 SLOAD PUSH1 0x1 PUSH1 0x1 PUSH1 0xA0 SHL SUB SWAP1 DUP2 AND DUP5 MSTORE PUSH1 0x1 DUP3 ADD SLOAD AND SWAP4 DUP4 ADD SWAP4 SWAP1 SWAP4 MSTORE PUSH1 0x2 DUP4 ADD SLOAD SWAP1 DUP3 ADD MSTORE PUSH1 0x3 DUP3 ADD SLOAD PUSH1 0xFF AND ISZERO ISZERO PUSH1 0x60 DUP3 ADD MSTORE PUSH1 0x4 DUP3 ADD SLOAD PUSH1 0x80 DUP3 ADD MSTORE PUSH1 0x5 SWAP1 SWAP2 ADD SLOAD PUSH1 0xA0 DUP3 ADD MSTORE DUP3 MLOAD DUP4 SWAP1 DUP4 SWAP1 DUP2 LT PUSH2 0x5A0 JUMPI PUSH2 0x5A0 PUSH2 0x1127 JUMP JUMPDEST PUSH1 0x20 MUL PUSH1 0x20 ADD ADD DUP2 SWAP1 MSTORE POP DUP1 DUP1 PUSH2 0x5B6 SWAP1 PUSH2 0x113B JUMP JUMPDEST SWAP2 POP POP PUSH2 0x4F8 JUMP JUMPDEST POP SWAP4 POP POP POP POP JUMPDEST SWAP3 SWAP2 POP POP JUMP JUMPDEST PUSH1 0x2 DUP2 DUP2 SLOAD DUP2 LT PUSH2 0x5DA JUMPI PUSH0 DUP1 REVERT JUMPDEST PUSH0 SWAP2 DUP3 MSTORE PUSH1 0x20 SWAP1 SWAP2 KECCAK256 ADD SLOAD PUSH1 0x1 PUSH1 0x1 PUSH1 0xA0 SHL SUB AND SWAP1 POP DUP2 JUMP JUMPDEST PUSH1 0x1 PUSH1 0x1 PUSH1 0xA0 SHL SUB DUP2 AND PUSH0 SWAP1 DUP2 MSTORE PUSH1 0x20 DUP2 SWAP1 MSTORE PUSH1 0x40 SWAP1 KECCAK256 PUSH1 0x7 ADD SLOAD PUSH1 0xFF AND ISZERO PUSH2 0x663 JUMPI PUSH1 0x40 MLOAD PUSH3 0x461BCD PUSH1 0xE5 SHL DUP2 MSTORE PUSH1 0x20 PUSH1 0x4 DUP3 ADD MSTORE PUSH1 0x1E PUSH1 0x24 DUP3 ADD MSTORE PUSH32 0x50756C736553636F72653A20616C726561647920726567697374657265640000 PUSH1 0x44 DUP3 ADD MSTORE PUSH1 0x64 ADD JUMPDEST PUSH1 0x40 MLOAD DUP1 SWAP2 SUB SWAP1 REVERT JUMPDEST PUSH1 0x40 DUP1 MLOAD PUSH2 0x100 DUP2 ADD DUP3 MSTORE CALLER DUP1 DUP3 MSTORE PUSH1 0xC8 PUSH1 0x20 DUP1 DUP5 ADD SWAP2 DUP3 MSTORE PUSH0 DUP5 DUP7 ADD DUP2 DUP2 MSTORE PUSH1 0x60 DUP7 ADD DUP3 DUP2 MSTORE PUSH1 0x80 DUP8 ADD DUP4 DUP2 MSTORE TIMESTAMP PUSH1 0xA0 DUP10 ADD DUP2 DUP2 MSTORE PUSH1 0xC0 DUP11 ADD DUP3 DUP2 MSTORE PUSH1 0x1 PUSH1 0xE0 DUP13 ADD DUP2 DUP2 MSTORE PUSH1 0x1 PUSH1 0x1 PUSH1 0xA0 SHL SUB DUP16 DUP2 AND DUP1 DUP12 MSTORE DUP11 DUP13 MSTORE DUP16 DUP12 KECCAK256 SWAP15 MLOAD DUP16 SLOAD PUSH1 0x1 PUSH1 0x1 PUSH1 0xA0 SHL SUB NOT SWAP1 DUP2 AND SWAP2 SWAP1 SWAP4 AND OR DUP16 SSTORE SWAP12 MLOAD DUP15 DUP5 ADD SSTORE SWAP8 MLOAD PUSH1 0x2 DUP1 DUP16 ADD SWAP2 SWAP1 SWAP2 SSTORE SWAP7 MLOAD PUSH1 0x3 DUP15 ADD SSTORE SWAP5 MLOAD PUSH1 0x4 DUP14 ADD SSTORE SWAP2 MLOAD PUSH1 0x5 DUP13 ADD SSTORE MLOAD PUSH1 0x6 DUP12 ADD SSTORE SWAP2 MLOAD PUSH1 0x7 SWAP1 SWAP10 ADD DUP1 SLOAD PUSH1 0xFF NOT AND SWAP10 ISZERO ISZERO SWAP10 SWAP1 SWAP10 OR SWAP1 SWAP9 SSTORE DUP2 SLOAD SWAP1 DUP2 ADD DUP3 SSTORE SWAP3 MSTORE PUSH32 0x405787FA12A823E0F2B7631CC41B3BA8828B3321CA811111FA75CD3AA3BB5ACE SWAP1 SWAP2 ADD DUP1 SLOAD SWAP1 SWAP2 AND DUP4 OR SWAP1 SSTORE SWAP4 MLOAD SWAP3 DUP4 MSTORE SWAP1 SWAP3 SWAP1 SWAP2 PUSH32 0xAE6249E1B0DE18C2723755A5833E4712BE14AAA5C1D2B8923223AD3784964F6E SWAP2 ADD PUSH1 0x40 MLOAD DUP1 SWAP2 SUB SWAP1 LOG3 POP JUMP JUMPDEST PUSH1 0x1 PUSH1 0x1 PUSH1 0xA0 SHL SUB DUP3 AND PUSH0 SWAP1 DUP2 MSTORE PUSH1 0x20 DUP2 SWAP1 MSTORE PUSH1 0x40 DUP2 KECCAK256 PUSH1 0x7 ADD SLOAD PUSH1 0xFF AND DUP1 ISZERO PUSH2 0x7C8 JUMPI POP PUSH1 0x1 PUSH1 0x1 PUSH1 0xA0 SHL SUB DUP4 AND PUSH0 SWAP1 DUP2 MSTORE PUSH1 0x20 DUP2 SWAP1 MSTORE PUSH1 0x40 SWAP1 KECCAK256 PUSH1 0x1 ADD SLOAD DUP3 GT ISZERO JUMPDEST SWAP4 SWAP3 POP POP POP JUMP JUMPDEST CALLER PUSH0 SWAP1 DUP2 MSTORE PUSH1 0x4 PUSH1 0x20 MSTORE PUSH1 0x40 SWAP1 KECCAK256 SLOAD PUSH1 0xFF AND DUP1 PUSH2 0x7F6 JUMPI POP PUSH1 0x3 SLOAD PUSH1 0x1 PUSH1 0x1 PUSH1 0xA0 SHL SUB AND CALLER EQ JUMPDEST PUSH2 0x842 JUMPI PUSH1 0x40 MLOAD PUSH3 0x461BCD PUSH1 0xE5 SHL DUP2 MSTORE PUSH1 0x20 PUSH1 0x4 DUP3 ADD MSTORE PUSH1 0x18 PUSH1 0x24 DUP3 ADD MSTORE PUSH32 0x50756C736553636F72653A206E6F742076657269666965720000000000000000 PUSH1 0x44 DUP3 ADD MSTORE PUSH1 0x64 ADD PUSH2 0x65A JUMP JUMPDEST PUSH1 0x1 PUSH1 0x1 PUSH1 0xA0 SHL SUB DUP5 AND PUSH0 SWAP1 DUP2 MSTORE PUSH1 0x20 DUP2 SWAP1 MSTORE PUSH1 0x40 SWAP1 KECCAK256 PUSH1 0x7 ADD SLOAD DUP5 SWAP1 PUSH1 0xFF AND PUSH2 0x8AE JUMPI PUSH1 0x40 MLOAD PUSH3 0x461BCD PUSH1 0xE5 SHL DUP2 MSTORE PUSH1 0x20 PUSH1 0x4 DUP3 ADD DUP2 SWAP1 MSTORE PUSH1 0x24 DUP3 ADD MSTORE PUSH32 0x50756C736553636F72653A206167656E74206E6F742072656769737465726564 PUSH1 0x44 DUP3 ADD MSTORE PUSH1 0x64 ADD PUSH2 0x65A JUMP JUMPDEST PUSH1 0x1 PUSH1 0x1 PUSH1 0xA0 SHL SUB DUP6 AND PUSH0 SWAP1 DUP2 MSTORE PUSH1 0x20 DUP2 SWAP1 MSTORE PUSH1 0x40 SWAP1 KECCAK256 PUSH1 0x6 DUP2 ADD SLOAD PUSH1 0x3C SWAP1 PUSH2 0x8D7 SWAP1 TIMESTAMP PUSH2 0x1114 JUMP JUMPDEST LT ISZERO PUSH2 0x925 JUMPI PUSH1 0x40 MLOAD PUSH3 0x461BCD PUSH1 0xE5 SHL DUP2 MSTORE PUSH1 0x20 PUSH1 0x4 DUP3 ADD MSTORE PUSH1 0x18 PUSH1 0x24 DUP3 ADD MSTORE PUSH32 0x50756C736553636F72653A20746F6F206672657175656E740000000000000000 PUSH1 0x44 DUP3 ADD MSTORE PUSH1 0x64 ADD PUSH2 0x65A JUMP JUMPDEST PUSH0 DUP4 ISZERO PUSH2 0x96A JUMPI PUSH0 PUSH3 0xF4240 DUP7 GT PUSH2 0x94F JUMPI PUSH3 0x186A0 DUP7 GT PUSH2 0x948 JUMPI PUSH1 0x1 PUSH2 0x952 JUMP JUMPDEST PUSH1 0x2 PUSH2 0x952 JUMP JUMPDEST PUSH1 0x3 JUMPDEST PUSH1 0xFF AND SWAP1 POP PUSH2 0x962 DUP2 PUSH1 0x5 PUSH2 0x1153 JUMP JUMPDEST SWAP2 POP POP PUSH2 0x977 JUMP JUMPDEST PUSH2 0x974 PUSH1 0xF PUSH2 0x1166 JUMP JUMPDEST SWAP1 POP JUMPDEST PUSH0 PUSH3 0x93A80 DUP4 PUSH1 0x6 ADD SLOAD TIMESTAMP PUSH2 0x98C SWAP2 SWAP1 PUSH2 0x1114 JUMP JUMPDEST PUSH2 0x996 SWAP2 SWAP1 PUSH2 0x1180 JUMP JUMPDEST SWAP1 POP DUP1 ISZERO PUSH2 0x9C3 JUMPI PUSH0 PUSH2 0x9AA PUSH1 0x1 DUP4 PUSH2 0x119F JUMP JUMPDEST PUSH2 0x9B3 SWAP1 PUSH2 0x1166 JUMP JUMPDEST SWAP1 POP PUSH2 0x9BF DUP2 DUP5 PUSH2 0x11B6 JUMP JUMPDEST SWAP3 POP POP JUMPDEST PUSH1 0x1 DUP4 ADD SLOAD PUSH0 PUSH2 0x9D3 DUP5 DUP4 PUSH2 0x11B6 JUMP JUMPDEST SWAP1 POP PUSH2 0x3E8 DUP2 SGT ISZERO PUSH2 0x9E4 JUMPI POP PUSH2 0x3E8 JUMPDEST PUSH0 DUP2 SLT ISZERO PUSH2 0x9EF JUMPI POP PUSH0 JUMPDEST PUSH1 0x1 DUP6 ADD DUP2 SWAP1 SSTORE PUSH1 0x2 DUP6 ADD DUP1 SLOAD SWAP1 PUSH0 PUSH2 0xA07 DUP4 PUSH2 0x113B JUMP JUMPDEST SWAP2 SWAP1 POP SSTORE POP DUP7 ISZERO PUSH2 0xA29 JUMPI PUSH1 0x3 DUP6 ADD DUP1 SLOAD SWAP1 PUSH0 PUSH2 0xA23 DUP4 PUSH2 0x113B JUMP JUMPDEST SWAP2 SWAP1 POP SSTORE POP JUMPDEST DUP8 DUP6 PUSH1 0x4 ADD PUSH0 DUP3 DUP3 SLOAD PUSH2 0xA3C SWAP2 SWAP1 PUSH2 0x1153 JUMP JUMPDEST SWAP3 POP POP DUP2 SWAP1 SSTORE POP TIMESTAMP DUP6 PUSH1 0x6 ADD DUP2 SWAP1 SSTORE POP PUSH1 0x1 PUSH0 DUP12 PUSH1 0x1 PUSH1 0x1 PUSH1 0xA0 SHL SUB AND PUSH1 0x1 PUSH1 0x1 PUSH1 0xA0 SHL SUB AND DUP2 MSTORE PUSH1 0x20 ADD SWAP1 DUP2 MSTORE PUSH1 0x20 ADD PUSH0 KECCAK256 PUSH1 0x40 MLOAD DUP1 PUSH1 0xC0 ADD PUSH1 0x40 MSTORE DUP1 DUP13 PUSH1 0x1 PUSH1 0x1 PUSH1 0xA0 SHL SUB AND DUP2 MSTORE PUSH1 0x20 ADD DUP12 PUSH1 0x1 PUSH1 0x1 PUSH1 0xA0 SHL SUB AND DUP2 MSTORE PUSH1 0x20 ADD DUP11 DUP2 MSTORE PUSH1 0x20 ADD DUP10 ISZERO ISZERO DUP2 MSTORE PUSH1 0x20 ADD TIMESTAMP DUP2 MSTORE PUSH1 0x20 ADD DUP7 DUP2 MSTORE POP SWAP1 DUP1 PUSH1 0x1 DUP2 SLOAD ADD DUP1 DUP3 SSTORE DUP1 SWAP2 POP POP PUSH1 0x1 SWAP1 SUB SWAP1 PUSH0 MSTORE PUSH1 0x20 PUSH0 KECCAK256 SWAP1 PUSH1 0x6 MUL ADD PUSH0 SWAP1 SWAP2 SWAP1 SWAP2 SWAP1 SWAP2 POP PUSH0 DUP3 ADD MLOAD DUP2 PUSH0 ADD PUSH0 PUSH2 0x100 EXP DUP2 SLOAD DUP2 PUSH1 0x1 PUSH1 0x1 PUSH1 0xA0 SHL SUB MUL NOT AND SWAP1 DUP4 PUSH1 0x1 PUSH1 0x1 PUSH1 0xA0 SHL SUB AND MUL OR SWAP1 SSTORE POP PUSH1 0x20 DUP3 ADD MLOAD DUP2 PUSH1 0x1 ADD PUSH0 PUSH2 0x100 EXP DUP2 SLOAD DUP2 PUSH1 0x1 PUSH1 0x1 PUSH1 0xA0 SHL SUB MUL NOT AND SWAP1 DUP4 PUSH1 0x1 PUSH1 0x1 PUSH1 0xA0 SHL SUB AND MUL OR SWAP1 SSTORE POP PUSH1 0x40 DUP3 ADD MLOAD DUP2 PUSH1 0x2 ADD SSTORE PUSH1 0x60 DUP3 ADD MLOAD DUP2 PUSH1 0x3 ADD PUSH0 PUSH2 0x100 EXP DUP2 SLOAD DUP2 PUSH1 0xFF MUL NOT AND SWAP1 DUP4 ISZERO ISZERO MUL OR SWAP1 SSTORE POP PUSH1 0x80 DUP3 ADD MLOAD DUP2 PUSH1 0x4 ADD SSTORE PUSH1 0xA0 DUP3 ADD MLOAD DUP2 PUSH1 0x5 ADD SSTORE POP POP DUP9 PUSH1 0x1 PUSH1 0x1 PUSH1 0xA0 SHL SUB AND DUP11 PUSH1 0x1 PUSH1 0x1 PUSH1 0xA0 SHL SUB AND PUSH32 0x1324D0AE1F7FD59B86732D23D6D8CD52FC78FBAFB8366B2593BDBD57F13C1854 DUP11 DUP11 DUP9 DUP11 PUSH1 0x1 ADD SLOAD PUSH1 0x40 MLOAD PUSH2 0xBCE SWAP5 SWAP4 SWAP3 SWAP2 SWAP1 SWAP4 DUP5 MSTORE SWAP2 ISZERO ISZERO PUSH1 0x20 DUP5 ADD MSTORE PUSH1 0x40 DUP4 ADD MSTORE PUSH1 0x60 DUP3 ADD MSTORE PUSH1 0x80 ADD SWAP1 JUMP JUMPDEST PUSH1 0x40 MLOAD DUP1 SWAP2 SUB SWAP1 LOG3 DUP10 PUSH1 0x1 PUSH1 0x1 PUSH1 0xA0 SHL SUB AND PUSH32 0x91878448EF87C3DB4AEB83E60E7DEB1240ECAE3FD04975EC93547398514CB4ED DUP4 DUP8 PUSH1 0x1 ADD SLOAD PUSH1 0x40 MLOAD PUSH2 0xC1E SWAP3 SWAP2 SWAP1 SWAP2 DUP3 MSTORE PUSH1 0x20 DUP3 ADD MSTORE PUSH1 0x40 ADD SWAP1 JUMP JUMPDEST PUSH1 0x40 MLOAD DUP1 SWAP2 SUB SWAP1 LOG2 POP POP POP POP POP POP POP POP POP POP JUMP JUMPDEST PUSH1 0x3 SLOAD PUSH1 0x1 PUSH1 0x1 PUSH1 0xA0 SHL SUB AND CALLER EQ PUSH2 0xC84 JUMPI PUSH1 0x40 MLOAD PUSH3 0x461BCD PUSH1 0xE5 SHL DUP2 MSTORE PUSH1 0x20 PUSH1 0x4 DUP3 ADD MSTORE PUSH1 0x15 PUSH1 0x24 DUP3 ADD MSTORE PUSH21 0x283AB639B2A9B1B7B9329D103737BA1037BBB732B9 PUSH1 0x59 SHL PUSH1 0x44 DUP3 ADD MSTORE PUSH1 0x64 ADD PUSH2 0x65A JUMP JUMPDEST PUSH1 0x1 PUSH1 0x1 PUSH1 0xA0 SHL SUB DUP2 AND PUSH0 DUP2 DUP2 MSTORE PUSH1 0x4 PUSH1 0x20 MSTORE PUSH1 0x40 DUP1 DUP3 KECCAK256 DUP1 SLOAD PUSH1 0xFF NOT AND PUSH1 0x1 OR SWAP1 SSTORE MLOAD PUSH32 0x6D05492139C5EA989514A5D2150C028041E5C087E2A39967F67DC7D2655ADB81 SWAP2 SWAP1 LOG2 POP JUMP JUMPDEST PUSH1 0x1 PUSH1 0x20 MSTORE DUP2 PUSH0 MSTORE PUSH1 0x40 PUSH0 KECCAK256 DUP2 DUP2 SLOAD DUP2 LT PUSH2 0xCE8 JUMPI PUSH0 DUP1 REVERT JUMPDEST PUSH0 SWAP2 DUP3 MSTORE PUSH1 0x20 SWAP1 SWAP2 KECCAK256 PUSH1 0x6 SWAP1 SWAP2 MUL ADD DUP1 SLOAD PUSH1 0x1 DUP3 ADD SLOAD PUSH1 0x2 DUP4 ADD SLOAD PUSH1 0x3 DUP5 ADD SLOAD PUSH1 0x4 DUP6 ADD SLOAD PUSH1 0x5 SWAP1 SWAP6 ADD SLOAD PUSH1 0x1 PUSH1 0x1 PUSH1 0xA0 SHL SUB SWAP5 DUP6 AND SWAP8 POP SWAP4 SWAP1 SWAP3 AND SWAP5 POP SWAP3 PUSH1 0xFF SWAP1 SWAP2 AND SWAP2 DUP7 JUMP JUMPDEST PUSH1 0x3 SLOAD PUSH1 0x1 PUSH1 0x1 PUSH1 0xA0 SHL SUB AND CALLER EQ PUSH2 0xD82 JUMPI PUSH1 0x40 MLOAD PUSH3 0x461BCD PUSH1 0xE5 SHL DUP2 MSTORE PUSH1 0x20 PUSH1 0x4 DUP3 ADD MSTORE PUSH1 0x15 PUSH1 0x24 DUP3 ADD MSTORE PUSH21 0x283AB639B2A9B1B7B9329D103737BA1037BBB732B9 PUSH1 0x59 SHL PUSH1 0x44 DUP3 ADD MSTORE PUSH1 0x64 ADD PUSH2 0x65A JUMP JUMPDEST PUSH1 0x1 PUSH1 0x1 PUSH1 0xA0 SHL SUB DUP2 AND PUSH0 DUP2 DUP2 MSTORE PUSH1 0x4 PUSH1 0x20 MSTORE PUSH1 0x40 DUP1 DUP3 KECCAK256 DUP1 SLOAD PUSH1 0xFF NOT AND SWAP1 SSTORE MLOAD PUSH32 0x44A3CD4EB5CC5748F6169DF057B1CB2AE4C383E87CD94663C430E095D4CBA424 SWAP2 SWAP1 LOG2 POP JUMP JUMPDEST PUSH1 0x1 PUSH1 0x1 PUSH1 0xA0 SHL SUB DUP1 DUP3 AND PUSH0 SWAP1 DUP2 MSTORE PUSH1 0x20 DUP2 DUP2 MSTORE PUSH1 0x40 DUP1 DUP4 KECCAK256 DUP2 MLOAD PUSH2 0x100 DUP2 ADD DUP4 MSTORE DUP2 SLOAD SWAP1 SWAP6 AND DUP6 MSTORE PUSH1 0x1 DUP2 ADD SLOAD SWAP3 DUP6 ADD SWAP3 SWAP1 SWAP3 MSTORE PUSH1 0x2 DUP3 ADD SLOAD SWAP1 DUP5 ADD DUP2 SWAP1 MSTORE PUSH1 0x3 DUP3 ADD SLOAD PUSH1 0x60 DUP6 ADD MSTORE PUSH1 0x4 DUP3 ADD SLOAD PUSH1 0x80 DUP6 ADD MSTORE PUSH1 0x5 DUP3 ADD SLOAD PUSH1 0xA0 DUP6 ADD MSTORE PUSH1 0x6 DUP3 ADD SLOAD PUSH1 0xC0 DUP6 ADD MSTORE PUSH1 0x7 SWAP1 SWAP2 ADD SLOAD PUSH1 0xFF AND ISZERO ISZERO PUSH1 0xE0 DUP5 ADD MSTORE SWAP1 SWAP2 SWAP1 DUP3 SUB PUSH2 0xE53 JUMPI POP PUSH0 SWAP3 SWAP2 POP POP JUMP JUMPDEST PUSH1 0x40 DUP2 ADD MLOAD PUSH1 0x60 DUP3 ADD MLOAD PUSH2 0xE69 SWAP1 PUSH2 0x2710 PUSH2 0x119F JUMP JUMPDEST PUSH2 0x7C8 SWAP2 SWAP1 PUSH2 0x1180 JUMP JUMPDEST PUSH2 0xEBE PUSH1 0x40 MLOAD DUP1 PUSH2 0x100 ADD PUSH1 0x40 MSTORE DUP1 PUSH0 PUSH1 0x1 PUSH1 0x1 PUSH1 0xA0 SHL SUB AND DUP2 MSTORE PUSH1 0x20 ADD PUSH0 DUP2 MSTORE PUSH1 0x20 ADD PUSH0 DUP2 MSTORE PUSH1 0x20 ADD PUSH0 DUP2 MSTORE PUSH1 0x20 ADD PUSH0 DUP2 MSTORE PUSH1 0x20 ADD PUSH0 DUP2 MSTORE PUSH1 0x20 ADD PUSH0 DUP2 MSTORE PUSH1 0x20 ADD PUSH0 ISZERO ISZERO DUP2 MSTORE POP SWAP1 JUMP JUMPDEST PUSH1 0x1 PUSH1 0x1 PUSH1 0xA0 SHL SUB DUP3 AND PUSH0 SWAP1 DUP2 MSTORE PUSH1 0x20 DUP2 SWAP1 MSTORE PUSH1 0x40 SWAP1 KECCAK256 PUSH1 0x7 ADD SLOAD PUSH1 0xFF AND PUSH2 0xF28 JUMPI PUSH1 0x40 MLOAD PUSH3 0x461BCD PUSH1 0xE5 SHL DUP2 MSTORE PUSH1 0x20 PUSH1 0x4 DUP3 ADD MSTORE PUSH1 0x1A PUSH1 0x24 DUP3 ADD MSTORE PUSH32 0x50756C736553636F72653A206E6F742072656769737465726564000000000000 PUSH1 0x44 DUP3 ADD MSTORE PUSH1 0x64 ADD PUSH2 0x65A JUMP JUMPDEST POP PUSH1 0x1 PUSH1 0x1 PUSH1 0xA0 SHL SUB SWAP1 DUP2 AND PUSH0 SWAP1 DUP2 MSTORE PUSH1 0x20 DUP2 DUP2 MSTORE PUSH1 0x40 SWAP2 DUP3 SWAP1 KECCAK256 DUP3 MLOAD PUSH2 0x100 DUP2 ADD DUP5 MSTORE DUP2 SLOAD SWAP1 SWAP5 AND DUP5 MSTORE PUSH1 0x1 DUP2 ADD SLOAD SWAP2 DUP5 ADD SWAP2 SWAP1 SWAP2 MSTORE PUSH1 0x2 DUP2 ADD SLOAD SWAP2 DUP4 ADD SWAP2 SWAP1 SWAP2 MSTORE PUSH1 0x3 DUP2 ADD SLOAD PUSH1 0x60 DUP4 ADD MSTORE PUSH1 0x4 DUP2 ADD SLOAD PUSH1 0x80 DUP4 ADD MSTORE PUSH1 0x5 DUP2 ADD SLOAD PUSH1 0xA0 DUP4 ADD MSTORE PUSH1 0x6 DUP2 ADD SLOAD PUSH1 0xC0 DUP4 ADD MSTORE PUSH1 0x7 ADD SLOAD PUSH1 0xFF AND ISZERO ISZERO PUSH1 0xE0 DUP3 ADD MSTORE SWAP1 JUMP JUMPDEST DUP1 CALLDATALOAD PUSH1 0x1 PUSH1 0x1 PUSH1 0xA0 SHL SUB DUP2 AND DUP2 EQ PUSH2 0xFBA JUMPI PUSH0 DUP1 REVERT JUMPDEST SWAP2 SWAP1 POP JUMP JUMPDEST PUSH0 PUSH1 0x20 DUP3 DUP5 SUB SLT ISZERO PUSH2 0xFCF JUMPI PUSH0 DUP1 REVERT JUMPDEST PUSH2 0x7C8 DUP3 PUSH2 0xFA4 JUMP JUMPDEST PUSH0 DUP1 PUSH1 0x40 DUP4 DUP6 SUB SLT ISZERO PUSH2 0xFE9 JUMPI PUSH0 DUP1 REVERT JUMPDEST PUSH2 0xFF2 DUP4 PUSH2 0xFA4 JUMP JUMPDEST SWAP5 PUSH1 0x20 SWAP4 SWAP1 SWAP4 ADD CALLDATALOAD SWAP4 POP POP POP JUMP JUMPDEST PUSH1 0x20 DUP1 DUP3 MSTORE DUP3 MLOAD DUP3 DUP3 ADD DUP2 SWAP1 MSTORE PUSH0 SWAP2 SWAP1 PUSH1 0x40 SWAP1 DUP2 DUP6 ADD SWAP1 DUP7 DUP5 ADD DUP6 JUMPDEST DUP3 DUP2 LT ISZERO PUSH2 0x1078 JUMPI DUP2 MLOAD DUP1 MLOAD PUSH1 0x1 PUSH1 0x1 PUSH1 0xA0 SHL SUB SWAP1 DUP2 AND DUP7 MSTORE DUP8 DUP3 ADD MLOAD AND DUP8 DUP7 ADD MSTORE DUP6 DUP2 ADD MLOAD DUP7 DUP7 ADD MSTORE PUSH1 0x60 DUP1 DUP3 ADD MLOAD ISZERO ISZERO SWAP1 DUP7 ADD MSTORE PUSH1 0x80 DUP1 DUP3 ADD MLOAD SWAP1 DUP7 ADD MSTORE PUSH1 0xA0 SWAP1 DUP2 ADD MLOAD SWAP1 DUP6 ADD MSTORE PUSH1 0xC0 SWAP1 SWAP4 ADD SWAP3 SWAP1 DUP6 ADD SWAP1 PUSH1 0x1 ADD PUSH2 0x101C JUMP JUMPDEST POP SWAP2 SWAP8 SWAP7 POP POP POP POP POP POP POP JUMP JUMPDEST PUSH0 PUSH1 0x20 DUP3 DUP5 SUB SLT ISZERO PUSH2 0x1095 JUMPI PUSH0 DUP1 REVERT JUMPDEST POP CALLDATALOAD SWAP2 SWAP1 POP JUMP JUMPDEST PUSH0 DUP1 PUSH0 DUP1 PUSH1 0x80 DUP6 DUP8 SUB SLT ISZERO PUSH2 0x10AF JUMPI PUSH0 DUP1 REVERT JUMPDEST PUSH2 0x10B8 DUP6 PUSH2 0xFA4 JUMP JUMPDEST SWAP4 POP PUSH2 0x10C6 PUSH1 0x20 DUP7 ADD PUSH2 0xFA4 JUMP JUMPDEST SWAP3 POP PUSH1 0x40 DUP6 ADD CALLDATALOAD SWAP2 POP PUSH1 0x60 DUP6 ADD CALLDATALOAD DUP1 ISZERO ISZERO DUP2 EQ PUSH2 0x10E1 JUMPI PUSH0 DUP1 REVERT JUMPDEST SWAP4 SWAP7 SWAP3 SWAP6 POP SWAP1 SWAP4 POP POP JUMP JUMPDEST PUSH4 0x4E487B71 PUSH1 0xE0 SHL PUSH0 MSTORE PUSH1 0x41 PUSH1 0x4 MSTORE PUSH1 0x24 PUSH0 REVERT JUMPDEST PUSH4 0x4E487B71 PUSH1 0xE0 SHL PUSH0 MSTORE PUSH1 0x11 PUSH1 0x4 MSTORE PUSH1 0x24 PUSH0 REVERT JUMPDEST DUP2 DUP2 SUB DUP2 DUP2 GT ISZERO PUSH2 0x5C5 JUMPI PUSH2 0x5C5 PUSH2 0x1100 JUMP JUMPDEST PUSH4 0x4E487B71 PUSH1 0xE0 SHL PUSH0 MSTORE PUSH1 0x32 PUSH1 0x4 MSTORE PUSH1 0x24 PUSH0 REVERT JUMPDEST PUSH0 PUSH1 0x1 DUP3 ADD PUSH2 0x114C JUMPI PUSH2 0x114C PUSH2 0x1100 JUMP JUMPDEST POP PUSH1 0x1 ADD SWAP1 JUMP JUMPDEST DUP1 DUP3 ADD DUP1 DUP3 GT ISZERO PUSH2 0x5C5 JUMPI PUSH2 0x5C5 PUSH2 0x1100 JUMP JUMPDEST PUSH0 PUSH1 0x1 PUSH1 0xFF SHL DUP3 ADD PUSH2 0x117A JUMPI PUSH2 0x117A PUSH2 0x1100 JUMP JUMPDEST POP PUSH0 SUB SWAP1 JUMP JUMPDEST PUSH0 DUP3 PUSH2 0x119A JUMPI PUSH4 0x4E487B71 PUSH1 0xE0 SHL PUSH0 MSTORE PUSH1 0x12 PUSH1 0x4 MSTORE PUSH1 0x24 PUSH0 REVERT JUMPDEST POP DIV SWAP1 JUMP JUMPDEST DUP1 DUP3 MUL DUP2 ISZERO DUP3 DUP3 DIV DUP5 EQ OR PUSH2 0x5C5 JUMPI PUSH2 0x5C5 PUSH2 0x1100 JUMP JUMPDEST DUP1 DUP3 ADD DUP3 DUP2 SLT PUSH0 DUP4 SLT DUP1 ISZERO DUP3 AND DUP3 ISZERO DUP3 AND OR ISZERO PUSH2 0x11D5 JUMPI PUSH2 0x11D5 PUSH2 0x1100 JUMP JUMPDEST POP POP SWAP3 SWAP2 POP POP JUMP INVALID LOG2 PUSH5 0x6970667358 0x22 SLT KECCAK256 PUSH0 PUSH13 0xE7182C9F42F52009358093E38E BASEFEE 0xD5 CODECOPY SHL 0xCF GT CALLER 0xD SLT SWAP8 0xD3 PUSH2 0x70AE PUSH2 0xCEA5 PUSH5 0x736F6C6343 STOP ADDMOD EQ STOP CALLER "},"methodIdentifiers":{"DECAY_RATE()":"1de40e49","FAILURE_PENALTY()":"cff5820b","MAX_SCORE()":"27ff6223","MIN_SCORE()":"40b89270","MIN_TXN_INTERVAL()":"280aa35f","SUCCESS_BONUS()":"7eb312b1","addVerifier(address)":"9000b3d6","agentList(uint256)":"2f80c54f","agentTransactions(address,uint256)":"aa92e449","agents(address)":"fd66091e","getAgent(address)":"fb3551ff","getAgentCount()":"91cab63e","getRecentTransactions(address,uint256)":"2e4eca2b","getScore(address)":"d47875d0","getSuccessRate(address)":"cb510373","getTransactionCount(address)":"23ca0cd2","meetsThreshold(address,uint256)":"7d0cc580","owner()":"8da5cb5b","recordTransaction(address,address,uint256,bool)":"8a7b6678","registerAgent(address)":"306b9bb9","removeVerifier(address)":"ca2dfd0a","verifiers(address)":"6c824487"}}}}}